:10146C00C200907FA5E05418FF131313541F44506F
:10147C00F51C139201D2E8907FAB74FFF0907FA91A
:10148C00F0907FAAF05391EF907F95E044C0F090DC
:10149C007FAFE04401F0907FAEE04405F0D2AF1294
:0D14AC00175F3000FD121100C20080F62213
:10110000907FE9E0245D600D147003021244240214
:10111000600302124A907FEAE0750800F509A3E037
:10112000FEE42509F509EE3508F508907FEEE07537
:101130000A00F50BA3E0FEE4250BF50BEE350AF5EE
:101140000A907FE8E064C060030211D4E50B450A11
:10115000700302124AC3E50B9440E50A940050085C
:10116000850A0C850B0D8006750C00750D40907F6F
:10117000E9E0B4A325AE0CAF0DAA08A9097B01C014
:1011800003C002C0017A7F790078007C7FAD03D074
:1011900001D002D003121356800FAF09AE08AD0D77
:1011A0007A7F79007B001215A4907FB5E50DF0E5FC
:1011B0000D2509F509E50C3508F508C3E50B950D76
:1011C000F50BE50A950CF50A907FB4E020E20302E6
:1011D000114C80F4907FE8E06440706EE50B450AA6
:1011E0006068E4907FC5F0907FB4E020E3F9907FE1
:1011F000C5E0750C00F50D907FE9E0B4A315AE0CC9
:10120000AF0DA809AC087D017B017A7E79C012136D
:1012100056800FAF09AE08AD0D7A7F79007B0012C2
:1012200014B9E50D2509F509E50C3508F508C3E500
:101230000B950DF50BE50A950CF50A907FB4E0448B
:0A12400002F08098907FEAE0F51CB0
:01124A002281
:06155800AB07AA06AC057A
:10155E00E4FD300111EAFFAE050DEE2400F582E444
:10156E0034E0F583EFF0EBAE050D74002EF582E45A
:10157E0034E0F583EBF0AF050D74002FF582E43403
:10158E00E0F583ECF0AF1C7AE07B001217207F0AA7
:05159E007E0012173C65
:0115A3002225
:0A14B9008E0E8F0F8D108A118B121A
:1014C300E4F513E513C395105020050FE50FAE0E99
:1014D3007002050E14FFE5122513F582E43511F5AC
:0A14E30083E0FD121558051380D9AF
:0114ED0022DC
:0A15A4008E0E8F0F8D108A118B122E
:1015AE00E4FD300112E50EFFAE050DEE2403F582CB
:1015BE00E434E0F583EFF0E50FAE050D74032EF580
:1015CE0082E434E0F583E50FF0AF1C7AE07B031282
:0D15DE001720AF1CAD10AB12AA111217049C
:0115EB0022DD
:10166E00C0E0C083C082C085C084C086758600D2AB
:10167E00005391EF907FAB7401F0D086D084D0856B
:07168E00D082D083D0E032CE
:10164400C0E0C083C082C085C084C0867586009017
:101654007FC4E4F05391EF907FAB7404F0D086D054
:0A16640084D085D082D083D0E0321C
:10169500C0E0C083C082C085C084C0867586005303
:1016A50091EF907FAB7402F0D086D084D085D08244
:0516B500D083D0E032FB
:1016BA00C0E0C083C082C085C084C08675860053DE
:1016CA0091EF907FAB7410F0D086D084D085D08211
:0516DA00D083D0E032D6
:0114FF0032BA
:1016DF00C0E0C083C082C085C084C08675860053B9
:1016EF0091EF907FAB7408F0D086D084D085D082F4
:0516FF00D083D0E032B1
:01176700324F
:01176800324E
:01176900324D
:01176A00324C
:01176B00324B
:01176C00324A
:01176D003249
:01176E003248
:01176F003247
:011770003246
:011771003245
:011772003244
:011773003243
:011774003242
:011775003241
:011776003240
:03004300021500A3
:1015000002166E0002169500021644000216DF0055
:101510000216BA000214FF000217670002176800E3
:101520000217690002176A0002176B0002176C00AD
:1015300002176D0002176E0002176F00021770008D
:10154000021771000217720002177300021774006D
:08155000021775000217760076
:10173C008E148F15E5151515AE14700215144E6028
:07174C00051214EE80EE22ED
:08175F00E4F51BD2E9D2AF2230
:10161900A907E51B7023907FA5E04480F0E925E048
:10162900907FA6F08D16AF03A9077517018A18894F
:0B16390019E4F51A751B01D322C3222F
:1015EC00A907E51B7025907FA5E04480F0E925E074
:1015FC004401907FA6F08D16AF03A9077517018AD9
:0D160C00188919E4F51A751B03D322C322B7
:03004B0002137F1E
:10137F00C0E0C083C082C085C084C086758600C0AF
:10138F00D075D000C000C001C002C003C006C007A6
:10139F00907FA5E030E206751B0602144E907FA5E4
:1013AF00E020E10CE51B64026006751B0702144E7A
:1013BF00AF1BEF24FE604814602C24FE60772404DA
:1013CF00600302144EAB17AA18A919AF1A051A8F8A
:1013DF008275830012124B907FA6F0E51A65167086
:1013EF005E751B058059907FA6E0AB17AA18A91947
:1013FF00AE1A8E82758300121278751B028040E53B
:10140F001624FEB51A07907FA5E04420F0E51614C8
:10141F00B51A0A907FA5E04440F0751B00907FA697
:10142F00E0AB17AA18A919AE1A8E82758300121293
:10143F0078051A800A907FA5E04440F0751B005391
:10144F0091DFD007D006D003D002D001D000D0D08A
:0D145F00D086D084D085D082D083D0E032FA
:101704001215ECE51B24FA600E146006240770F32E
:0C171400D322E4F51BD322E4F51BD32202
:10172000121619E51B24FA600E146006240770F3E4
:0C173000D322E4F51BD322E4F51BD322E6
:1014EE007400F58690FDA57C05A3E582458370F911
:0114FE0022CB
:0300000002175391
:0C175300787FE4F6D8FD75812002146C4C
:10124B00BB010CE58229F582E5833AF583E0225058
:10125B0006E92582F8E622BBFE06E92582F8E222A2
:0D126B00E58229F582E5833AF583E49322BC
:10127800F8BB010DE58229F582E5833AF583E8F0AC
:10128800225006E92582C8F622BBFE05E92582C858
:02129800F22240
:10129A00E709F608DFFA8046E709F208DFFA803E36
:1012AA0088828C83E709F0A3DFFA8032E309F60823
:1012BA00DFFA806EE309F208DFFA806688828C839F
:1012CA00E309F0A3DFFA805A89828A83E0A3F60849
:1012DA00DFFA804E89828A83E0A3F208DFFA80422D
:1012EA0080D280FA80C680D4805580F2802980100E
:1012FA0080A680EA809A80A880DA80E280CA802963
:10130A0088848C8589828A83E493A30586F0A30561
:10131A0086DFF5DEF3800B89828A83E493A3F608DD
:10132A00DFF9ECFAA9F0EDFB2288848C8589828AA0
:10133A0083E0A30586F0A30586DFF6DEF480E38961
:10134A00828A83E493A3F208DFF980D688F0ED2439
:10135A0002B4040050CCF582EB2402B4040050C25B
:10136A0023234582F582EF4E60B8EF60010EE582D5
:05137A00239012EA734C
:00000001FF
